:060000000A128A110C280F
:10000800FE00030EF3000A08F4000A128A111528EC
:100018000A128A110F28F601F70183010A128A11C0
:10002800B3280B1C182819284C2883120313061808
:100038001E281F2826280130F6000030F7008514F6
:1000480063004B28861829282A283D287603770438
:10005800031D2F2830283D28F601F70185100030B0
:100068000A128A11DE200A128A11831203138800E9
:100078004B280619402841284B281E08F200720810
:10008800F00000300A128A11C9200A128A110B10D6
:10009800831203130C1F512852285E281F0CF200EC
:1000A800720C0F39003A031D5A285B285D281E0878
:1000B80087000C1374088A00730E8300FE0E7E0EF0
:1000C800090001308316031788008901831603137A
:1000D8000F088F3960388F000F14013085008312A4
:1000E800031385018316031306148614831203135E
:1000F800860183160313870183120313870183166E
:1001080003138801831203138801831603138113D1
:1001180015149514C030831203139F048316031318
:100128001F129F12C330831203139F0583160313F4
:100138009F13831203131F140D30F500F50BA2282B
:100148008B17831603130C17831203130C138B15C9
:10015800831603131614961416150B1708000A12A3
:100168008A1165200A128A1176087704031DBD28B2
:10017800BE28B828831203139F18C328C428B82898
:100188009F14B8280A128A110C28F10071088312EA
:1001980003178D0070088C00831603178C130C1539
:1001A8008B1355308D00AA308D008C140C110B1058
:1001B8008B170800F0007008831203178D00831650
:0E01C80003178C130C14831203170C08080085
:08400000FF3FFF3FFF3FFF3FC0
:04400E00D420FF3F7C
:00000001FF
