:060000000A128A110C280F
:10000800FE00030EF1000A08F2000A128A115C28A9
:100018000A128A110F28F401F50183010A128A11C4
:100028008E2801308316031788008901831603136D
:100038000F088F3960388F000F1401308500831244
:1000480003138501831603130614861483120313FE
:10005800860183160313870183120313870183160E
:100068000313811315149514C030831203139F04CE
:10007800831603131F129F12C330831203139F05A5
:10008800831603139F13831203131F140D30F300F9
:10009800F30B4C288B17831603130C1783120313C7
:1000A8000C138B1583160313161496140B170800DC
:1000B8000B1C5F286028752883120313061865280F
:1000C80066286D280130F4000030F50085146300BF
:1000D80074288618702871287428F401F501851091
:1000E8000B10831203130C1F7A287B2887281F0CF8
:1000F800F000700C0F39003A031D832884288628E5
:100108001E0887000C1372088A00710E8300FE0E09
:100118007E0E09000A128A1115200A128A11740823
:100128007504031D982899289328831203139F1890
:100138009E289F2893289F1493280A128A110C2816
:08400000FF3FFF3FFF3FFF3FC0
:04400E00D420FF3F7C
:00000001FF
