:060000000A128A110C280F
:10000800FE00030EF3000A08F4000A128A115728AA
:100018000A128A110F2883010A128A1191280130C5
:100028008316031788008901831603130F088F3975
:1000380060388F000F140130850083120313850187
:1000480083160313061483120313860183160313FE
:100058008701831203138701831603138113151471
:10006800C030831203139F04831603131F129F12B9
:10007800C330831203139F05831603139F13831240
:1000880003131F140D30F500F50B48288B17831642
:1000980003130C17831203130C138B158316031306
:1000A80016140B1708000B1C5A285B287828831293
:1000B8000313061860286128772885146300063022
:1000C800F2001330F100AD30F000F00B6928F10BAD
:1000D8006928F20B69287028831203139F18752862
:1000E800762877289F140B10831203130C1F7D2882
:1000F8007E288A281F0CF000700C0F39003A031D67
:100108008628872889281E0887000C1374088A0007
:10011800730E8300FE0E7E0E09000A128A11132048
:100128000A128A1183120313851096280A128A115B
:020138000C2891
:08400000FF3FFF3FFF3FFF3FC0
:04400E00D420FF3F7C
:00000001FF
